{
    "contractName": "DEX",
    "abi": [
        {
            "inputs": [
                {
                    "internalType": "address",
                    "name": "_admin",
                    "type": "address"
                }
            ],
            "stateMutability": "nonpayable",
            "type": "constructor"
        },
        {
            "inputs": [],
            "name": "admin",
            "outputs": [
                {
                    "internalType": "address",
                    "name": "",
                    "type": "address"
                }
            ],
            "stateMutability": "view",
            "type": "function"
        },
        {
            "inputs": [
                {
                    "internalType": "string",
                    "name": "token1",
                    "type": "string"
                },
                {
                    "internalType": "string",
                    "name": "token2",
                    "type": "string"
                },
                {
                    "internalType": "uint256",
                    "name": "_price",
                    "type": "uint256"
                },
                {
                    "internalType": "uint256",
                    "name": "_amount",
                    "type": "uint256"
                }
            ],
            "name": "initOrder",
            "outputs": [],
            "stateMutability": "nonpayable",
            "type": "function"
        },
        {
            "inputs": [
                {
                    "internalType": "uint16",
                    "name": "",
                    "type": "uint16"
                }
            ],
            "name": "orderBooks",
            "outputs": [
                {
                    "internalType": "contract OrderBook",
                    "name": "",
                    "type": "address"
                }
            ],
            "stateMutability": "view",
            "type": "function"
        },
        {
            "inputs": [
                {
                    "internalType": "string",
                    "name": "",
                    "type": "string"
                }
            ],
            "name": "tokens",
            "outputs": [
                {
                    "internalType": "uint8",
                    "name": "tokenCode",
                    "type": "uint8"
                },
                {
                    "internalType": "string",
                    "name": "symbol",
                    "type": "string"
                },
                {
                    "internalType": "address",
                    "name": "tokenAddr",
                    "type": "address"
                }
            ],
            "stateMutability": "view",
            "type": "function"
        }
    ],
    "bytecode": "608060405234801561001057600080fd5b506040516106a93803806106a983398101604081905261002f916101e6565b600080546001600160c01b0319166001600160a01b03831617600160a01b1781556040805180820190915260048152632ba1272160e11b602082015261007891600191906100ad565b6100a7600260405180604001604052806004815260200163109554d160e21b81525060006100ad60201b60201c565b5061028c565b60405180606001604052808460ff168152602001838152602001826001600160a01b03168152506001836040516100e49190610216565b908152604051602091819003820190208251815460ff191660ff909116178155828201518051919261011e9260018501929091019061014d565b5060409190910151600290910180546001600160a01b0319166001600160a01b03909216919091179055505050565b82805461015990610251565b90600052602060002090601f01602090048101928261017b57600085556101c1565b82601f1061019457805160ff19168380011785556101c1565b828001600101855582156101c1579182015b828111156101c15782518255916020019190600101906101a6565b506101cd9291506101d1565b5090565b5b808211156101cd57600081556001016101d2565b6000602082840312156101f857600080fd5b81516001600160a01b038116811461020f57600080fd5b9392505050565b6000825160005b81811015610237576020818601810151858301520161021d565b81811115610246576000828501525b509190910192915050565b600181811c9082168061026557607f821691505b6020821081141561028657634e487b7160e01b600052602260045260246000fd5b50919050565b61040e8061029b6000396000f3fe608060405234801561001057600080fd5b506004361061004c5760003560e01c806304c2320b14610051578063af4c33001461007c578063cc65638a146100bd578063f851a440146100d3575b600080fd5b61006461005f36600461023a565b6100e6565b60405161007393929190610316565b60405180910390f35b6100a561008a3660046102eb565b6002602052600090815260409020546001600160a01b031681565b6040516001600160a01b039091168152602001610073565b6100d16100cb366004610277565b50505050565b005b6000546100a5906001600160a01b031681565b8051602081830181018051600180835293830192909401919091209290528154908201805460ff909216929161011b90610387565b80601f016020809104026020016040519081016040528092919081815260200182805461014790610387565b80156101945780601f1061016957610100808354040283529160200191610194565b820191906000526020600020905b81548152906001019060200180831161017757829003601f168201915b505050600290930154919250506001600160a01b031683565b600082601f8301126101be57600080fd5b813567ffffffffffffffff808211156101d9576101d96103c2565b604051601f8301601f19908116603f01168101908282118183101715610201576102016103c2565b8160405283815286602085880101111561021a57600080fd5b836020870160208301376000602085830101528094505050505092915050565b60006020828403121561024c57600080fd5b813567ffffffffffffffff81111561026357600080fd5b61026f848285016101ad565b949350505050565b6000806000806080858703121561028d57600080fd5b843567ffffffffffffffff808211156102a557600080fd5b6102b1888389016101ad565b955060208701359150808211156102c757600080fd5b506102d4878288016101ad565b949794965050505060408301359260600135919050565b6000602082840312156102fd57600080fd5b813561ffff8116811461030f57600080fd5b9392505050565b60ff8416815260006020606081840152845180606085015260005b8181101561034d57868101830151858201608001528201610331565b8181111561035f576000608083870101525b506001600160a01b039490941660408401525050601f91909101601f19160160800192915050565b600181811c9082168061039b57607f821691505b602082108114156103bc57634e487b7160e01b600052602260045260246000fd5b50919050565b634e487b7160e01b600052604160045260246000fdfea26469706673582212206debc1bc1bb3190e1fb90b812a7a6cafbb74dfd5a39ad2d24e25c023a29a76a364736f6c63430008060033",
    "sourcePath": "c:/Learning/Solidity/DEX/contracts/DEX.sol",
    "compiler": {
        "name": "solc",
        "version": "0.8.6+commit.11564f7e"
    },
    "functionHashes": {
        "admin()": "f851a440",
        "initOrder(string,string,uint256,uint256)": "cc65638a",
        "orderBooks(uint16)": "af4c3300",
        "tokens(string)": "04c2320b"
    },
    "gasEstimates": {
        "creation": {
            "codeDepositCost": "207600",
            "executionCost": "infinite",
            "totalCost": "infinite"
        },
        "external": {
            "admin()": "2381",
            "initOrder(string,string,uint256,uint256)": "infinite",
            "orderBooks(uint16)": "2511",
            "tokens(string)": "infinite"
        },
        "internal": {
            "setToken(uint8,string memory,address)": "infinite"
        }
    }
}