{
    "contractName": "OrderBook",
    "abi": [
        {
            "inputs": [
                {
                    "internalType": "uint16",
                    "name": "_pairId",
                    "type": "uint16"
                }
            ],
            "stateMutability": "nonpayable",
            "type": "constructor"
        },
        {
            "anonymous": false,
            "inputs": [
                {
                    "indexed": false,
                    "internalType": "uint32",
                    "name": "orderId",
                    "type": "uint32"
                },
                {
                    "indexed": false,
                    "internalType": "uint256",
                    "name": "amount",
                    "type": "uint256"
                },
                {
                    "indexed": false,
                    "internalType": "address",
                    "name": "taker",
                    "type": "address"
                }
            ],
            "name": "DealCompleted",
            "type": "event"
        },
        {
            "inputs": [
                {
                    "internalType": "uint256",
                    "name": "_price",
                    "type": "uint256"
                },
                {
                    "internalType": "uint256",
                    "name": "_amount",
                    "type": "uint256"
                },
                {
                    "internalType": "address",
                    "name": "_maker",
                    "type": "address"
                },
                {
                    "internalType": "uint32",
                    "name": "_orderId",
                    "type": "uint32"
                }
            ],
            "name": "append",
            "outputs": [],
            "stateMutability": "nonpayable",
            "type": "function"
        },
        {
            "inputs": [
                {
                    "internalType": "uint32",
                    "name": "_orderId",
                    "type": "uint32"
                },
                {
                    "internalType": "uint256",
                    "name": "newAmount",
                    "type": "uint256"
                }
            ],
            "name": "changeAmount",
            "outputs": [],
            "stateMutability": "nonpayable",
            "type": "function"
        },
        {
            "inputs": [
                {
                    "internalType": "uint32",
                    "name": "_orderId",
                    "type": "uint32"
                },
                {
                    "internalType": "uint256",
                    "name": "newPrice",
                    "type": "uint256"
                }
            ],
            "name": "changePrice",
            "outputs": [],
            "stateMutability": "nonpayable",
            "type": "function"
        },
        {
            "inputs": [
                {
                    "internalType": "uint256",
                    "name": "_price",
                    "type": "uint256"
                },
                {
                    "internalType": "uint256",
                    "name": "_amount",
                    "type": "uint256"
                },
                {
                    "internalType": "address",
                    "name": "taker",
                    "type": "address"
                }
            ],
            "name": "findDeal",
            "outputs": [
                {
                    "internalType": "uint32",
                    "name": "",
                    "type": "uint32"
                }
            ],
            "stateMutability": "nonpayable",
            "type": "function"
        },
        {
            "inputs": [
                {
                    "internalType": "uint32",
                    "name": "_orderId",
                    "type": "uint32"
                }
            ],
            "name": "findOrder",
            "outputs": [
                {
                    "internalType": "uint32",
                    "name": "",
                    "type": "uint32"
                }
            ],
            "stateMutability": "view",
            "type": "function"
        },
        {
            "inputs": [
                {
                    "internalType": "uint32",
                    "name": "index",
                    "type": "uint32"
                }
            ],
            "name": "remove",
            "outputs": [],
            "stateMutability": "nonpayable",
            "type": "function"
        }
    ],
    "bytecode": "608060405234801561001057600080fd5b50604051610d05380380610d0583398101604081905261002f9161004e565b600080546001600160501b03191661ffff909216919091179055610079565b60006020828403121561006057600080fd5b815161ffff8116811461007257600080fd5b9392505050565b610c7d806100886000396000f3fe608060405234801561001057600080fd5b50600436106100615760003560e01c8062d84fd814610066578063077d033a1461007b5780638466c8361461008d5780638aba0b23146100a0578063af25e64e146100cc578063f4d4d93d1461007b575b600080fd5b610079610074366004610b4d565b6100f5565b005b610079610089366004610b6f565b5050565b61007961009b366004610b07565b610258565b6100b36100ae366004610ad2565b61054b565b60405163ffffffff909116815260200160405180910390f35b6100b36100da366004610b4d565b63ffffffff9081166000908152600260205260409020541690565b600061010082610888565b905063ffffffff81166101575760018163ffffffff168154811061012657610126610c31565b6000918252602082206004919091020154815465ffffffff0000191663ffffffff90911662010000021790556101c8565b60018263ffffffff168154811061017057610170610c31565b60009182526020909120600490910201546001805463ffffffff92831692841690811061019f5761019f610c31565b60009182526020909120600490910201805463ffffffff191663ffffffff929092169190911790555b60018263ffffffff16815481106101e1576101e1610c31565b600091825260208220600490910201805463ffffffff191681556001810180546001600160c81b0319169055600281018290556003018190558054600160301b900463ffffffff1690600661023583610bd7565b91906101000a81548163ffffffff021916908363ffffffff160217905550505050565b60015463ffffffff808216111561026e57600080fd5b6040805180820182526000808252825160a08101845263ffffffff86811680835260208381018590526001600160a01b03808b168589015260608086018e905260808087018e9052838901968752600180548082018255908952985160049099027fb10e2d527612073b26eecdfd717e6a320cf44b4afac2b0732d9fcbe2b7fa0cf6810180549a881663ffffffff199b8c16179055965180517fb10e2d527612073b26eecdfd717e6a320cf44b4afac2b0732d9fcbe2b7fa0cf78901805483880151848f0151909716650100000000000265010000000000600160c81b031960ff989098166401000000000264ffffffffff19909216938b1693909317179590951617909355908201517fb10e2d527612073b26eecdfd717e6a320cf44b4afac2b0732d9fcbe2b7fa0cf887015501517fb10e2d527612073b26eecdfd717e6a320cf44b4afac2b0732d9fcbe2b7fa0cf99094019390935583526002909152928120805485851693169290921790915554620100009004166104575760005462010000900463ffffffff161515806104145750600054600160301b900463ffffffff1615155b61041d57600080fd5b6000805469ffffffff0000000000001963ffffffff841662010000021669ffffffffffffffff00001990911617600160301b179055610544565b60006104628661097a565b905060018163ffffffff168154811061047d5761047d610c31565b60009182526020909120600490910201546001805463ffffffff9283169285169081106104ac576104ac610c31565b60009182526020909120600490910201805463ffffffff191663ffffffff92831617905560018054849284169081106104e7576104e7610c31565b60009182526020822060049190910201805463ffffffff191663ffffffff9384161790558054600160301b900490911690600661052383610bf7565b91906101000a81548163ffffffff021916908363ffffffff16021790555050505b5050505050565b6000805462010000900463ffffffff165b63ffffffff8116158015906105715750600084115b15610880578460018263ffffffff168154811061059057610590610c31565b9060005260206000209060040201600101600101541015610849578360018263ffffffff16815481106105c5576105c5610c31565b90600052602060002090600402016001016002015410156106c25760018163ffffffff16815481106105f9576105f9610c31565b906000526020600020906004020160010160020154846106199190610bc0565b9350610624816100f5565b7f83e445ead35d619250e768f379c72fa5369913170f0bf9cfe4a8a403caebcde060018263ffffffff168154811061065e5761065e610c31565b600091825260209091206001600490920201810154815463ffffffff9182169291851690811061069057610690610c31565b906000526020600020906004020160010160020154856040516106b593929190610b99565b60405180910390a1610849565b8360018263ffffffff16815481106106dc576106dc610c31565b90600052602060002090600402016001016002015411156107a0578360018263ffffffff168154811061071157610711610c31565b906000526020600020906004020160010160020160008282546107349190610bc0565b925050819055507f83e445ead35d619250e768f379c72fa5369913170f0bf9cfe4a8a403caebcde060018263ffffffff168154811061077557610775610c31565b60009182526020909120600160049092020101546040516106b59163ffffffff169087908790610b99565b600093508360018263ffffffff16815481106107be576107be610c31565b60009182526020909120600360049092020101556107db816100f5565b7f83e445ead35d619250e768f379c72fa5369913170f0bf9cfe4a8a403caebcde060018263ffffffff168154811061081557610815610c31565b60009182526020909120600160049092020101546040516108409163ffffffff169087908790610b99565b60405180910390a15b60018163ffffffff168154811061086257610862610c31565b600091825260209091206004909102015463ffffffff16905061055c565b949350505050565b6000805463ffffffff838116620100009092041614156108aa57506000919050565b60005462010000900463ffffffff165b600063ffffffff1660018263ffffffff16815481106108db576108db610c31565b600091825260209091206004909102015463ffffffff1614610971578263ffffffff1660018263ffffffff168154811061091757610917610c31565b600091825260209091206004909102015463ffffffff16141561093a5792915050565b60018163ffffffff168154811061095357610953610c31565b600091825260209091206004909102015463ffffffff1690506108ba565b50600092915050565b60005462010000900463ffffffff165b6109c48160018363ffffffff16815481106109a7576109a7610c31565b600091825260209091206004909102015463ffffffff1684610a0a565b156109ce57919050565b60018163ffffffff16815481106109e7576109e7610c31565b600091825260209091206004909102015463ffffffff16905061098a565b919050565b600063ffffffff84161580610a4c57508160018563ffffffff1681548110610a3457610a34610c31565b90600052602060002090600402016001016001015411155b8015610880575060018054610a619190610bc0565b8363ffffffff16148061088057508160018463ffffffff1681548110610a8957610a89610c31565b90600052602060002090600402016001016001015411949350505050565b80356001600160a01b0381168114610a0557600080fd5b803563ffffffff81168114610a0557600080fd5b600080600060608486031215610ae757600080fd5b8335925060208401359150610afe60408501610aa7565b90509250925092565b60008060008060808587031215610b1d57600080fd5b8435935060208501359250610b3460408601610aa7565b9150610b4260608601610abe565b905092959194509250565b600060208284031215610b5f57600080fd5b610b6882610abe565b9392505050565b60008060408385031215610b8257600080fd5b610b8b83610abe565b946020939093013593505050565b63ffffffff93909316835260208301919091526001600160a01b0316604082015260600190565b600082821015610bd257610bd2610c1b565b500390565b600063ffffffff821680610bed57610bed610c1b565b6000190192915050565b600063ffffffff80831681811415610c1157610c11610c1b565b6001019392505050565b634e487b7160e01b600052601160045260246000fd5b634e487b7160e01b600052603260045260246000fdfea26469706673582212203617f9856d9b771dc994bd63c11cfa2a6283adb4445595ca9f9c387a19d98c2d64736f6c63430008060033",
    "sourcePath": "c:/Learning/Solidity/DEX/contracts/OrderBook.sol",
    "compiler": {
        "name": "solc",
        "version": "0.8.6+commit.11564f7e"
    },
    "functionHashes": {
        "append(uint256,uint256,address,uint32)": "8466c836",
        "changeAmount(uint32,uint256)": "f4d4d93d",
        "changePrice(uint32,uint256)": "077d033a",
        "findDeal(uint256,uint256,address)": "8aba0b23",
        "findOrder(uint32)": "af25e64e",
        "remove(uint32)": "00d84fd8"
    },
    "gasEstimates": {
        "creation": {
            "codeDepositCost": "639400",
            "executionCost": "infinite",
            "totalCost": "infinite"
        },
        "external": {
            "append(uint256,uint256,address,uint32)": "infinite",
            "changeAmount(uint32,uint256)": "391",
            "changePrice(uint32,uint256)": "303",
            "findDeal(uint256,uint256,address)": "infinite",
            "findOrder(uint32)": "2585",
            "remove(uint32)": "infinite"
        },
        "internal": {
            "_findIndex(uint256)": "infinite",
            "_findPrevIndex(uint32)": "infinite",
            "_veryfiyIndex(uint32,uint32,uint256)": "10923"
        }
    }
}